:020000041000EA
:10000000002008205D0100101B0100101D010010E0
:100010001101001011010010110100101101001058
:100020001901001019010010190100101F01001022
:10003000110100101901001021010010230100100E
:100040001101001011010010110100101101001028
:100050001101001011010010110100101101001018
:100060001101001011010010110100101101001008
:1000700011010010110100101101001011010010F8
:1000800011010010110100101101001011010010E8
:1000900011010010110100101101001011010010D8
:1000A00011010010110100101101001011010010C8
:1000B00011010010110100101101001011010010B8
:1000C00011010010110100101101001011010010A8
:1000D0001101001011010010110100101101001098
:1000E0001101001011010010110100101101001088
:1000F0001101001011010010110100101101001078
:100100001101001011010010110100101101001067
:10011000EFF30580103800BE00BE00BE00BE00BE7A
:1001200000BE00BEF2EB887198CB0010B8CB001077
:10013000A001001090A31AE7D3DEFFFF42012110B7
:10014000FF01000088E80000793512AB4FF0000095
:100150001E49086006C881F3088810474FF05040D8
:10016000006810B14FF00000F2E70DA40ECC00299A
:1001700002D000F012F8F9E71549164A002000E015
:1001800001C19142FCD11449884714498847144958
:10019000884700BEFDE701C901C29A42FBD3704700
:1001A000B8CB001010010020181F0020C0E900107B
:1001B0000000082000000820C0E9001000100820FE
:1001C00000100820000000007047000008ED00E06B
:1001D000181F00205C300020315300103502001041
:1001E000ED520010F8B500BF064B0749C91A891037
:1001F00048BF0131491003D0044B0BB101481847E7
:10020000704700BF181F0020181F002000000000CA
:1002100008B5054B1BB105490548AFF30080BDE8A3
:100220000840FFF7E1BF00BF000000008C2D002058
:1002300068C000102DE9F04F2DED048BB1B005F032
:10024000DDF9192001F052FE19234FF0010242ECB2
:100250004430C54800F02CFFC44801F0AFFA02F06A
:100260002BFE002900F099814FF47A7200230BF0E5
:10027000AFFE219040F2DC5002F01AFD02F01CFEAD
:100280004FF0FF366FF00042B94C4FF000090419EF
:1002900041F10005A64272EB05033CBF344615460A
:1002A0004FF0000800262746AA46DFF8DCB25EE0E1
:1002B0009DF8BA30002B00F0508119234FF0010255
:1002C00042EC403002F0F8FDCDE91A012B980BF01A
:1002D0007BFE9DF8B930CDE918012D981E930BF0E7
:1002E00073FE9DF8BA209DED268B1D929DED289BF7
:1002F00006460F469DF8B8A000F094FFDDE91D23E7
:10030000012808F1010500F04181022800F02A814E
:1003100098499DED187BCDE90A21CDE90867414652
:10032000CDE906A3DDE91A238DED047B8DED029B5B
:100330008DED008B904805F023FA2646A846DBF8A1
:1003400000308B4C986809F0CDFC02F0B5FD4FF001
:10035000FF326FF00043071941F1000ABA4273EB14
:100360000A013CBF17469A46012002F0A1FC00F0AA
:10037000FBFE01F025FC01F059FD002840F0E28071
:1003800002F09AFD381A6AEB0101012871F10001AF
:10039000EADA26A800F04CFF0446002888D1002E97
:1003A000CDD14FF0007320EE103002F085FD002912
:1003B00000F0EE804FF47A7200230BF009FE024643
:1003C00022A8209201F022FD00F020FF189000F0FA
:1003D00023FF1A9001F02AFD1D9001F033FD1E90BD
:1003E00001F02AFD1F9001F033FD044601F03CFDB1
:1003F000054601F03FFD074601F042FD824601F04F
:100400002DFD1F9BCDE909A005931E9B209A049307
:100410001D9BCDE9075703939DF8953006941693DD
:100420009DF8943055481593BDF8923014939DF87B
:10043000903013939DF88F3012939DF88E30119366
:100440009DF88D3010939DF88C300F939DF88B3074
:100450000E939DF88A300D939DF8893018990C936E
:100460009DF8883001910B9321991A9B009102937A
:100470004146002305F084F908F101085FE79DF883
:10048000B530002B63D002F017FDDDED278A9DED1E
:10049000268A68EEA87A9DED289AE8EE087ADDEDC6
:1004A000299AE9EE097AE9EEA97AF1EEE77A0446AB
:1004B00017EE900A0D460BF087FD02460B469DF89D
:1004C000B5C09DF8B4102C98CDE90E1CCDE91023D1
:1004D0000BF07AFD02460B462B98CDE90C230BF06E
:1004E00073FD02460B462A98CDE90A230BF06CFDFA
:1004F00002460B4619EE900ACDE908230BF064FD85
:1005000002460B4619EE100ACDE906230BF05CFDFE
:1005100002460B4618EE900ACDE904230BF054FD79
:1005200002460B4618EE100ACDE902230BF04CFDF3
:100530002246CDE900012B464946114805F020F935
:1005400009F1010926A801F045FC002897D1DBF844
:100550000030986809F0C6FB12E74FF0007320EEF8
:100560001030AFE60749D4E600800740000008409D
:1005700040420F0074C00010F4C0001070C10010A1
:100580007CC000106CC00010081D00200649C0E6A9
:10059000064BA3FB0032920912E74FF47A73B0FBCB
:1005A000F3F3219366E600BF68C00010D34D6210DC
:1005B0002DE9F0418846002109F010F90022134B83
:1005C00006460F4603F052F803F0D0F803F0AAF8FD
:1005D00000220E4B04460D4603F022F802460B465D
:1005E0003046394603F008F80022094B03F03EF884
:1005F0002B46224602F0ECFF08F0FB03532B02D1FE
:1006000001F100431946BDE8F08100BF00005940E8
:1006100000004E40000000002DE9F04FDFF8C892C6
:1006200089B0D9F800108B69DA064AD4DFF8BC82A9
:10063000A44DA54CDFF8B8A2DFF8A4B28A6912F085
:100640001002FBD10B68DBB2242B00F0A08098F8DD
:10065000001091B10D2B00F0C0800A2BBAF80010E9
:1006600000F0B480481C5F2899BFAAF800000BF87E
:10067000013088F80020AAF800202A78082A18D823
:10068000DFE812F0C400CA006B0078005E0044008E
:100690002A00220009008D4E32789A4200F05482DE
:1006A0008B4A8C4F002313708B4A3B802B70138036
:1006B0003370D9F8001023688A6901332360D306A8
:1006C000BCD509B0BDE8F08F814A1178994200F09D
:1006D000AF827E4E7F4FE5E77D4A7C4E92F800C0A8
:1006E0007C4F9C4482F800C03A8837787A48BC44F2
:1006F000018886F800C0794E0E4433714B1C9BB2C2
:100700009A420380D5D807232B70D2E77349704AE9
:1007100088786E4ECB70117840EA03200B44317814
:100720006C4F13707A280B4433703880BAD8002885
:1007300014BF0623072300222B70674B1A80B8E7EB
:1007400005222A70624A614E11781944117032787C
:100750001144624A31709370ABE703222A705C4AFD
:100760005A4E117819441170327811445B4A317035
:1007700013709EE704222A70554A544E117819448A
:10078000117032781144554A3170537091E701214C
:100790002A788BF8003088F80010AAF80010082A90
:1007A00087D801A151F822F0B30600102F0B0010DA
:1007B0005B07001075070010410700100D070010BF
:1007C000D9060010C9060010970600105F292ED91F
:1007D000002288F80020AAF800202A78013A072A87
:1007E0003FF667AF01A151F822F000BF2F0B0010B8
:1007F0005B07001075070010410700100D0700107F
:10080000D9060010C906001097060010B52B7FF41A
:1008100050AF01232B704CE7622B40F08581022200
:1008200000232A4E2A702A4A3370137041E72C485D
:1008300042540278242ACBD12A49CDE9013209F069
:1008400095FD019B002800F0F681029A02201146D6
:10085000234E2C2906D016F8011F002900F0118321
:100860002C290AD177780138711C002F00F0018300
:1008700038B12C2F00F008820E4616F8011F00290F
:10088000E7D1029124210320154E04E016F8011F40
:10089000002900F065822C2906D016F8011F0029D6
:1008A00000F059822C29F1D116F8011F01380029D6
:1008B00000F051820028F5D1059624210420084E2D
:1008C0001DE000BF573000202830002048300020B5
:1008D00047300020403000204230002074280020A3
:1008E0002C2D0020C8C20010F42800205130002018
:1008F0003E30002016F8011F002900F038822C2914
:1009000006D016F8011F002900F02C822C29F1D105
:1009100016F8011F0138002900F024820028F5D1C3
:10092000049624210520834E04E016F8011F0029B7
:1009300000F024822C2906D016F8011F002900F0AF
:1009400018822C29F1D116F8011F0138002900F076
:1009500010820028F5D1019624210626754804E06E
:1009600010F8011F002900F03A822C2906D010F857
:10097000011F002900F00F822C29F1D110F8011F6E
:10098000013E002900F00782002EF5D1242107271F
:10099000684E04E016F8011F002900F016822C2989
:1009A00006D016F8011F002900F00B822C29F1D186
:1009B00016F8011F013F002900F00382002FF5D136
:1009C00008272421DFF86CC104E01CF8011F00296E
:1009D00000F0BF812C2906D01CF8011F002900F06F
:1009E000B2812C29F1D11CF8011F013F002900F030
:1009F000AA81002FF5D1CDF80CC009214D4F04E09C
:100A000017F8012F002A00F0E4812C2A06D017F8ED
:100A1000012F002A00F0D1812C2AF1D117F8012FE3
:100A20000139002A00F0C9810029F5D1002800F021
:100A300002810278002A00F0FE800A22002106933B
:100A400008F0C6FF0028D3BF0021032101220022A5
:100A5000394B83F8201083F82220069B002E00F0EB
:100A60000682307830B130460A22002109F05CF865
:100A7000069BC0B2304A82F821000398002800F09B
:100A8000A6810278002A00F0A2810021039308F0D9
:100A9000A5FE02F039FE0246039B2749CA61002FDA
:100AA00000F099813A78002A00F0958138460021BB
:100AB000039308F093FE02F027FE0246039B1E4EAE
:100AC00002983261D0B10278C2B1059AB2B1117800
:100AD000A1B1049F97B13A7882B1019A72B11278AC
:100AE00062B10293FFF764FDC6E90001019A38463E
:100AF0001178FFF75DFDC6E90201029B022001218A
:100B00000E4A019310700E4A0A4811700D4909F0FF
:100B10002DFC019B00283FF45BAE064A11780029AA
:100B20003FF456AE0F4692E0B52B3FF4C2AD002322
:100B30002B70BEE52C2D00206821002054300020B1
:100B400055300020CCC20010A94B1A78012A01921E
:100B50007FF4A6AD5A78072A7FF4A2ADA54F3A8854
:100B60005B2A40F28C8193ED0A6AD3ED106A93ED13
:100B7000117A1A7EA049029281F82020DA7EB3F819
:100B800050C081F82120D3E907018DED076ACDED32
:100B9000066A8DED057ACDF810C0039102F0C2FD12
:100BA00091A3D3E9002302F03BFD934AC2E902017D
:100BB000039802F0B7FD8CA3D3E9002302F030FDC7
:100BC0009DED076ADDED066A9DED057ADDED047A9F
:100BD000DFED8A5AB8EEC66AF8EE666AB8EEC77AF2
:100BE000F8EE677ADFED864A9FED865A029B824ACD
:100BF000012B94BF00230123C2E9000126EE256AE0
:100C0000114666EEA56A27EE247A67EE857A82F8A9
:100C10002230019A7C4B81ED046A1A707B4BC1ED46
:100C2000056A1A7081ED067AC1ED077A784A39E5CE
:100C300008232B703DE577497748019309F096FB2F
:100C4000019B00283FF4C4AD734A11780F4602207F
:100C5000714A04E012F8011F002900F091802C294C
:100C600006D012F8011F002900F08D802C29F1D147
:100C700056780138511C002E00F0848000287FD067
:100C80002C2E04D00A46E5E7B11C0291FAE50232A7
:100C900039460726604804E010F8011F002900F0DB
:100CA0009C802C2905D010F8011F00296FD02C2919
:100CB000F2D110F8011F013E002968D0002EF6D1B4
:100CC0004FF0080C544E04E016F8017F002F00F09E
:100CD000A9802C2F05D016F8011F00295FD02C29E0
:100CE000F2D116F8011F0CF1FF3C002957D0BCF1DE
:100CF000000FF4D1002A3FF46BAD1278412A7FF443
:100D000067AD90B1027882B10021019308F066FDD1
:100D100002F0FAFC9FED427A07EE900A67EE877ABE
:100D2000354F019BC7ED057A3178002900F094809A
:100D300030460021019308F051FD02F0E5FC2E4EF3
:100D4000019BB06188E0002F614618BF0021CDF8FB
:100D50000CC0039151E60028314618BF00210596CA
:100D60000591AAE50028314618BF00210496049198
:100D7000D7E50028314618BF002101960191EBE527
:100D80000A4685E70A46002818BF002280E7002EA1
:100D900018BF002094E7002E18BF0020F6E5BCF134
:100DA000000F3FD1002A3FF413AD1278412A7FF49F
:100DB0000FAD002850D06146A4E7002918BF0027D6
:100DC00034E6002F18BF0026FAE50E46F8E5134A70
:100DD00063E617462AE6002271E6084670E70846F1
:100DE000D4E500BFAFF3008048AFBC9AF2D77A3E9B
:100DF0007428002040300020682100206F12833AC0
:100E0000ACC527370AD7233C54300020553000208A
:100E100047300020CCC200102C2D0020CDCCC74282
:100E20009AB2033F002A3FF4D3AC1278412A7FF4F0
:100E3000CFAC88B102787AB10021019308F0CEFCE2
:100E400002F062FC1FED0A7A07EE900A67EE877ADD
:100E50000D4E019BC6ED057A0C4A117801293FF42D
:100E6000B7AC022111700121094A1170B0E430467B
:100E700000E60291002818BF0021029102E5054A10
:100E800010E431460296F5E7682100205430002036
:100E900055300020473000202DE9F04FDFF8F0906A
:100EA00083B099F80030304C304F314EDFF8E4A079
:100EB0000090019300232F4A256813802E4A29466B
:100EC00013702E4A009813702D4A3B7013702D4AF0
:100ED0003380138089F8003002F03AF8142001F0D2
:100EE000E7FE01F0E9FF4FF0FF3E6FF0004C264BAC
:100EF00010EB030B41F10008DE457CEB08010AD240
:100F0000F346E04607E0FFF787FB99F80030A3B906
:100F1000052001F0CDFE01F0CFFFBBEB000068EB38
:100F20000101012871F100010CDBDAF80030002B1F
:100F3000E9D199F80030002BEAD0AB46584603B00F
:100F4000BDE8F08F019B043489F800300F4B9C42C0
:100F5000B0D14FF4165B4FF41651009801F0F8FF32
:100F6000584603B0BDE8F08FC0C5001057300020D0
:100F70004030002042300020473000204830002020
:100F8000513000203E300020C0270900CCC50010A1
:100F900055300020F4280020002310B50446424AB2
:100FA00086B004920593A3699A06FCD4B523236006
:100FB000A3699B06FCD462232360A3699806FCD432
:100FC00006232360A3699906FCD401232360A36947
:100FD0009A06FCD408232360A36913F02003FBD1F5
:100FE0000F222B2123600DEB02000DF1170E10F8DC
:100FF00001CFA3699B06FCD46244D2B2114486455A
:10100000C4F800C0C9B2F2D1A3699806FCD422602A
:10101000A36913F02003FBD132202160019301F07A
:1010200047FE224A019B0292ADF80C30A3699A0652
:10103000FCD4B5232360A3699B06FCD46223236000
:10104000A3699806FCD406232360A3699906FCD4FF
:1010500008232360A3699A06FCD406232360A369AE
:1010600013F02003FBD13C211422236002A80DF1D0
:101070000E0E10F801CBA3699B06FCD46244D2B2D9
:1010800011447045C4F800C0C9B2F2D1A3699806F2
:10109000FCD42260A3699B06FCD43220216006B0F8
:1010A000BDE8104001F004BE01070001E8030100A3
:1010B000F8B504461D4B282200211D481C6008F08D
:1010C00067FF00224FF416501A4B1B491A701B4B36
:1010D0001B4F1A601B4B1C4E1A701C4B1C4D1A8068
:1010E0001C4B0A701A801C4B02211A701B4B386073
:1010F0001A701B4B08201A701A4B32601A802A6033
:1011000000F0C4FE0221092000F0C0FE00220121EF
:10111000092000F0D9FE2046FFF7BEFE38602046C9
:10112000FFF73AFF33682B60F8BD00BFF4280020BA
:10113000682100205430002055300020FC2C002075
:10114000F8270020573000202830002040300020B1
:10115000FC2700204230002047300020483000208B
:10116000513000203E30002038B5214C2368002B40
:1011700033D0FFF751FA2368002B2ED01D4B1B787C
:101180005BBB1D4B1D4A1B6812689B1AB3F5006FB1
:1011900000D238BD01F090FE21BB194BA3FB0030FB
:1011A000800941F28731174A1368C31A8B42F0D97C
:1011B000154B106020681D68FFF76EFE124B18601B
:1011C0000C4B1B780BB9854202D02068FFF7E4FE78
:1011D000094B0A4A1B68136038BD074A074B12685F
:1011E0001A6038BD4FF47A7200230AF0F1FED8E796
:1011F000F42800205530002028300020FC27002053
:10120000D34D6210FC2C0020F8270020014B1868F9
:10121000704700BF28300020014B1868704700BF9E
:10122000F8270020014B1878704700BF5430002089
:1012300010B590B184460A4BDFF828E01C78BEE870
:101240000F00ACE80F00BEE80F00ACE80F009EE80E
:1012500003008CE80300204610BD0446204610BD64
:101260005530002068210020594A1388C3F30E032B
:10127000043B9BB25BB19178564892F804C0017070
:101280005548012980F800C002D003290ED07047CC
:10129000BCF1010FFBD1514B1B78042B02D0002273
:1012A0004F4B1A7001224F4B1A7070474E4910B5C0
:1012B00002F1040E0A6801320A60002230E0BCF13B
:1012C000040F40D102F10A0080B298423BD8024696
:1012D000B1F904009FED456A06EE900AB1F90600E7
:1012E000B1F9081007EE100A07EE901AF8EEE66A58
:1012F000B8EEC77AF8EEE77A66EE866A27EE067AE7
:1013000067EE867A3A4981F800C03A49C1ED046A2D
:1013100081ED057AC1ED067A934213D91EF802C019
:10132000BCF1050F0EEB020110D0C8D90CF106017B
:10133000C9B2012907D8511D89B28B4203D30A468D
:101340009342EBD810BD013292B2E5E702F10E00F4
:1013500080B28342F7D30246B1F90400DFED265A8A
:1013600006EE100AB1F90600B8EEC66A06EE900A5B
:10137000B1F90800F8EEE66A07EE100AB1F90A00C2
:10138000B8EEC77A07EE900AF8EEE77A887819493E
:1013900000F003040C7726EE256A4FF0010466EE98
:1013A000A56A27EE257A67EEA57A1448C1ED007A82
:1013B00081ED016AC1ED026A81ED037A4C77016823
:1013C000013101600E490C70094981F800C0A3E7A2
:1013D000EC2D00204D3000204E3000204A300020FF
:1013E0005330002049300020002800200000803BBE
:1013F0004F300020002D002000008038EC2F00200E
:10140000563000202DE9F04F4FF00009052742F239
:10141000107B89B0DFF80081DFF800A1CDF81690CD
:101420000190CDF80E90CDF81290CDF81990FD22D4
:1014300015238DF80C2002224FF05046A8F80030FA
:1014400001999AF80230314C8DF80D10ADF811B0B9
:1014500088F8033003AD01338AF8023088F802209F
:101460000FCD0FC42B6823707368DA022CD51623B6
:1014700049EC403001F020FD4FF0FF326FF00043A7
:10148000234C4FF05046041941F10005A24273EB82
:1014900005013CBF14461D4608E001F00DFD201A71
:1014A00065EB0101012871F1000129DB7368DB02A2
:1014B000F3D4012416234FF0010242EC4030C8203F
:1014C000002101F089FB94B1112449EC4040022035
:1014D000002101F081FB0F4B152218680E490AF01C
:1014E0009BFD4FF0010343EC404015280AD00A2031
:1014F00001F0DEFB013F9AD1384609B0BDE8F08F1C
:101500000024D7E7012009B0BDE8F08F08300020A3
:1015100020A10700F82F002004300020AC2D00206F
:101520004FF05043F0B55B680746DA0283B063D4EE
:1015300000234C4A1124136043EC40400220002158
:1015400001F04AFB484A04231068464A11460AF053
:1015500047FD4FF0010343EC4040042807D1414BC5
:101560001E88C6F30E06331FB3F5FE7F02D9002096
:1015700003B0F0BD01F0A0FC4FF47A7304464FF0C5
:10158000FF3C6FF00042E7FB0341A44572EB01030F
:101590000D463CBF644615464FF0504708E001F049
:1015A0008BFC201A65EB0101012871F10001DEDBE3
:1015B000796811F48011F2D132462A480191112440
:1015C00008F0E6FC019941EC40400220002101F0C6
:1015D00003FB244A24483346114600680AF000FD04
:1015E0004FF0010343EC4040B042C0D101201F4AFC
:1015F000136803441360BBE716234FF0000242EC6C
:10160000403001F059FC4FF47A7304464FF0FF3636
:101610006FF00042E7FB0341A64272EB01030D4667
:101620003CBF344615464FF0504608E001F044FCFC
:10163000201A65EB0101012871F1000110DB7368CC
:10164000DB02F3D4012416234FF0010242EC4030B8
:10165000C820002101F0C0FA002C7FF469AF86E7B2
:101660000024F0E7EC2D0020F82F0020F02F0020C0
:101670004FF05043F0B55B6883B0DA0262D40023C8
:101680004A4A1124136043EC40400220002101F03B
:10169000A3FA474A04231068444A11460AF0A0FC02
:1016A0004FF0010343EC4040042808D13F4B1B8816
:1016B000C3F30E031F46043BB3F5FE7F02D900209F
:1016C00003B0F0BD01F0F8FB4FF0FF366FF00042C1
:1016D000384C041941F10005A64272EB05033CBFEA
:1016E000344615464FF0504608E001F0E5FB201A5D
:1016F00065EB0101012871F10001E0DB716811F473
:101700008011F2D13A4629480191112408F040FC99
:10171000019941EC40400220002101F05DFA234A8A
:1017200023483B46114600680AF05AFC4FF001037B
:1017300043EC4040B842C2D101201F4A1368034421
:101740001360BDE716234FF0000242EC403001F079
:10175000B3FB4FF0FF366FF00042164C041941F115
:101760000005A64272EB05033CBF344615464FF018
:10177000504608E001F0A0FB201A65EB01010128AA
:1017800071F1000110DB7368DB02F3D4012416232E
:101790004FF0010242EC4030C820002101F01CFA59
:1017A000002C7FF46CAF8AE70024F0E7EC2D0020DA
:1017B000F82F0020A0860100F02F00202DE9F84F1F
:1017C0000024DFF830932022C9F800000021B84837
:1017D00008F0DEFBB74BB84DC3E90044B74BB84A3D
:1017E0001C70B84BB8491C70B84BDFF80CB31C60C8
:1017F000B74BB84F1C70B84B11201C70B74BC5E9E4
:1018000000441C700C601470CBF80040AC60AC81DC
:101810003C704FF0010600F069FB112346EC4430A8
:1018200046EC4030152000F061FB4FF0150846EC07
:10183000448046EC4080162000F058FB4FF0160A1A
:1018400046EC44A046EC40A0142000F04FFB1423CB
:1018500044EC443001211846224600F035FB0121BA
:10186000122000F013FB0121132000F00FFB0121D7
:10187000102000F00BFB22460121102000F024FB79
:101880009749D9F8000006F08FFB4FF0020ED9F807
:101890000020D9F8003002F5805052F8041F02F5FC
:1018A000405CCCF800E0D3F800C001EA0E018CF0F7
:1018B000C70C02F500520CF0CF0CC0F800C011604C
:1018C00046EC40A044EC4080142001F0F1F946ECD5
:1018D00040804FF4C87001F0EBF94FF05043C5E978
:1018E0000044AC60AC815A68C2F300526A705A6816
:1018F000C2F34052AA705A68C2F38052EA705A6822
:101900005968C2F34043C9022B7100F187804FF040
:10191000FF331124C5F805304FF0000343EC40407D
:101920000220002101F058F96E4A04231146D9F82B
:1019300000000AF055FB4FF0010343EC40404FF02C
:1019400050435A680428C2F300526A705A68C2F3BE
:101950004052AA705A68C2F38052EA705B68C3F3BF
:1019600040432B7146D002232B7016234FF0010504
:1019700045EC403015244FF0000343EC4040142068
:1019800001F096F945EC40404FF4C87001F090F931
:1019900001F092FA4FF0FF356FF00042524C0419FB
:1019A00041F10006A54272EB06033CBF2C461646E9
:1019B0004E4D12E0FFF75CFE60B1AB78012B07D112
:1019C0002B88C3F30E03042B02D02B79012B66D096
:1019D000FFF74AFC022001F06BF901F06DFA201AC2
:1019E00066EB0101012871F10001E3DA01233B708C
:1019F000BDE8F88FB5F80530B5F80720C3F30E033E
:101A00006B81043BB3F5FE7FAA8100F28980D2B2DC
:101A1000042A34BF042303232B70A6E744EC40A020
:101A200001F04AFA4FF0FF346FF00042304E861951
:101A300041F10008B44272EB08033CBF26469046D1
:101A40004FF0504408E001F037FA301A68EB01011A
:101A5000012871F1000161DB6368DA02F3D4012629
:101A60001623012444EC4030C820002101F0B4F8D2
:101A7000002E7FF44CAF4FF050432C705A68C2F3E5
:101A800000526A705A68C2F34052AA705A68C2F390
:101A90008052EA705B68C3F340432B7165E7052011
:101AA000FFF7B0FC50BB02233B70BDE8F88F00BFCE
:101AB000002D0020AC2D0020D42D0020533000201C
:101AC0005630002049300020F02F00200028002050
:101AD0004F3000204A3000204D3000204E30002092
:101AE000C0C62D00D92D002080841E00EC2D0020C2
:101AF00040420F00F82F0020EC2F00200824FFF7B1
:101B0000B7FD18B1FFF7B0FB013CF8D10420FFF797
:101B100079FC40B903233B70BDE8F88F00269FE7AE
:101B200003232B7021E70824FFF7A2FD18B1FFF76C
:101B30009BFB013CF8D101F0BFF9DBF8003063BB3F
:101B40004FF0FF346FF000421A4D451941F1000685
:101B5000AC4272EB06033CBF254616464FF050449C
:101B600008E01420FFF7DCFC08B1FFF77DFBDBF891
:101B7000003093B901F0A0F9281A66EB01010128A1
:101B800071F1000106DB6368DB02EAD5052001F094
:101B90008FF8ECE7DBF800302BB101220423064973
:101BA0003B700A7024E7052201233A70034A137040
:101BB0001EE700BFC0C62D00533000204930002072
:101BC0002DE9F84F744B1B68002B34D0DFF8FC81F3
:101BD00098F80030002B40F0CB8008256F4EDFF8DE
:101BE000E0A14FF050435C6814F4801423D13220FC
:101BF000FFF796FCF8B13388C3F30E03043B9BB2A6
:101C0000F3B1B2786648317902706648012A0170F2
:101C100013D06548032A90F800C015D0BCF1000F1E
:101C200007D1DAF8003023B10123037004235F4A9F
:101C30001370013DD5D1BDE8F88F012900F0A280D5
:101C4000594890F800C0E9E72246594C8346276876
:101C5000DFF87CE10137276031E0042941D102F14E
:101C60000A091FFA89F94B453BD3B4F904009FEDEB
:101C7000516A06EE900AB4F90600F8EEE66A07EE3D
:101C8000100AB4F90800B8EEC77A07EE900AF8EE29
:101C9000E77A66EE866A27EE067A67EE867A464C23
:101CA0004A46C4ED046A84ED057AC4ED067ADFF88D
:101CB000189189F80010934211D91EF802100529D5
:101CC0000EEB020410D0C8D90631C9B2012908D8D8
:101CD000511D89B28B4204D30A469342EDD858462F
:101CE0009CE7013292B2E6E702F10E091FFA89F988
:101CF0004B45F6D3B4F90400DFED305A06EE100A76
:101D0000B4F90600B8EEC66A06EE900AB4F9080007
:101D1000F8EEE66A07EE100AB4F90A00B8EEC77AE0
:101D200007EE900AF8EEE77A4A4626EE256A4FF06B
:101D3000010966EEA56A27EE257A67EEA57AA478F2
:101D40001F4804F003071C4CC4ED007A84ED016ABF
:101D5000C4ED026A84ED037A277784F81D90046845
:101D60004C440460174C84F80090174C2170A2E793
:101D70000023052088F80030FFF744FB0420FFF71C
:101D800041FB2AE7094B08481B7888F80010042B10
:101D90003FF457AF047044E7F82F0020EC2D0020EB
:101DA0004D3000204E300020533000204A300020BB
:101DB000002800200000803B002D0020000080381B
:101DC000EC2F0020563000204F30002049300020FA
:101DD000F02D002010B588B18446DFF82CE0BEE875
:101DE0000F00ACE80F004FF00002064B1C781A7091
:101DF0009EE80F008CE80F00204610BD04462046E8
:101E000010BD00BF56300020002D0020844650B188
:101E1000054B07CBCCF80000CCF80410CCF8082018
:101E20001B88ACF80C307047D42D0020014B18787B
:101E3000704700BF53300020014B1868704700BF47
:101E4000EC2F0020014B1878704700BF4A3000206B
:101E5000014B1868704700BFF02F0020014B187825
:101E6000704700BF4F300020014B1868704700BF1B
:101E700000280020014B1878704700BF4D3000202B
:101E8000014B1878704700BF4E3000204FF4807C23
:101E90000C4B00B553F8202003EB8003C00082F008
:101EA000400200F1804003F5805E02F0C00200F5C0
:101EB000203003F54053CEF800204160C3F800C045
:101EC00000BD00BF04800340DFF81CC0C90041EA28
:101ED00082015CF820200CEB8003514003F5805315
:101EE00001F00C0119607047048003404FF00003BB
:101EF00000B543EC440043EC40004FF0050E4FF4B6
:101F0000807C0C4BC20053F8201003EB800081F062
:101F1000400102F1804303F5203301F0C00200F5D7
:101F2000805100F540500A60C3F804E0C0F800C0DA
:101F300000BD00BF048003400FB400B5084883B063
:101F400003F0A0FB049B3BB105A91846019103F0E7
:101F500077F9044803F096FB012003F089F900BFEC
:101F6000D0C20010C4C2001070B51646EFF3108442
:101F700072B6DFF848E0DEE8CF2F0123002AFAD15D
:101F8000CEE8423F002AF6D1BFF35F8F012301F074
:101F9000070CCA0803FA0CF310F802C01CEA030588
:101FA00008D14CEA030C00F802C0CEE88F5F84F33E
:101FB000108870BD3046FFF7BFFF00BFEF23002041
:101FC000F8B50F461946EFF3108672B61C4DD5E8EA
:101FD000CF4F0123002CFAD1C5E8443F002CF6D1A5
:101FE000BFF35F8F8A421BD8012402E00132914285
:101FF00022D3D30810F803E002F0070C04FA0CFC1B
:102000001EEA0C0FF2D14EEA0C0E00F803E0104667
:102010000023C5E88F3F86F31088984207DBF8BDA0
:102020000023C5E88F3F86F310884FF0FF30002F64
:10203000F5D00698FFF780FF4FF0FF30E8E700BFCC
:10204000EF230020044A1078431CDBB2182B28BF72
:1020500010231370704700BFF815002000B5DFF89B
:102060001CC083B001461F231822CDF800C00248CF
:10207000FFF7A6FF03B000BD0C280020E0C200104F
:102080004FF0E022936843F000539360704700BF25
:102090000021044B03F12002C3E88F1F0133934258
:1020A000FAD17047E42300204FF0E0234FF0803254
:1020B000C3F80024C3F80424C3F80824C3F80C248C
:1020C000C3F81024C3F81424C3F81824C3F81C243C
:1020D000C3F82024C3F82424C3F82824C3F82C24EC
:1020E000C3F8302462B67047012300F01F0293400A
:1020F000400941B1800000F1604000F56140C0F846
:10210000803103607047024A203042F82030704727
:1021100000E100E00123064A410952F8212000F0C5
:102120001F008340134214BF01200020704700BFEE
:1021300000E100E001224309034900F01F00824052
:10214000403341F82320704700E100E0054A103099
:102150009268054B52F82000C01A2F288CBF00202F
:102160000120704700ED00E0FC15002010B582B0A2
:10217000EFF3108472B6164BD3E8CFCF0122BCF137
:10218000000FF9D1C3E84C2FBCF1000FF4D1BFF31D
:102190005F8F104A10309268DFF83CC052F8202060
:1021A000624508D0914206D0CDE9000101F0DCF88B
:1021B0000199074B0098074A926842F82010BFF334
:1021C0005F8F0022C3E88F2F84F3108802B010BD08
:1021D000ED23002000ED00E0110100102DE9F04F8B
:1021E00006468A46154683B0EFF3108872B6714FE3
:1021F000D7E8CF2F0123002AFAD1C7E8423F002AAF
:10220000F6D1BFF35F8F6C4991F90020002A7BDB88
:102210006A4802EB420400EB840393F806C01036D0
:1022200081F800C06649A40089684FEA420B51F862
:1022300026E0AEEB00012F292ED962498E4540F0F1
:10224000848043F0010E604B02340444043B1B1BAA
:10225000C3F34A036FEAC3434FF421416FEAD34308
:102260005A4420F8221000EB820253804BF60153AF
:102270009380FF23D571C2F808A09371504B9B68DF
:1022800043F826E0BFF35F8F0023C7E88F3F88F352
:10229000108803B0BDE8F08F2EF0010C9CF80710F9
:1022A000A9425AD9B14601941E4603E0CB79AB420C
:1022B00030D98C469CF9064004EB4401002C00EB1D
:1022C0008101F3DA00944BF6015433464E460CF18B
:1022D0000409043BA3EB0903C3F34A036FEAC343B6
:1022E0006FEAD343ACF80430384B0BEB02018CF8A7
:1022F000062040F82130009B00EB8102948093710E
:10230000D571C2F808A0B9E701F02EF82A4991F971
:1023100000207DE76FF007010094019C33460C1B01
:102320006146241A019431F8044F4E4644F30A04DE
:10233000023401EB4404894601990C44C4F34A0475
:102340006FEAC4446FEAD444C3E7CDE9002301F047
:102350000BF8DDE90023194873E71B4AA11CDD7166
:102360000144043A251D521A0544ACF10401491BED
:10237000C1F34A016FEAC141C2F34A026FEAC242A5
:102380006FEAD1414FF4214E6FEAD24299800F4952
:1023900020F804E05A804AF6AA256246121A5241F1
:1023A00055432D0DC3F808A09D7143F0010ECCF8E4
:1023B000001063E7ED2300204B300020FC150020C7
:1023C00000ED00E0110100102C16002001488047AC
:1023D0002DE9F041EFF30583DBB29E46EFF3108564
:1023E00072B62949D1E8CF2F0123002AFAD1C1E8DA
:1023F000423F002AF6D1BFF35F8FDFF89C8040F0A8
:102400000106D8F808704AF6AA2357F82E70044639
:102410001E4AA41A644163431B0DB7425BB21ED02F
:1024200092F906409C4220D092F912409C4227D05B
:1024300092F91E409C4225D092F92A409C4208BF46
:10244000032413D0124A002492F800C0137080F8BD
:1024500006C0C1E88F4F85F31088BDE8F081D8F839
:1024600008200C4C42F82E40ECE7002404EB440416
:1024700002EB8402FF2494714BF601549480E1E74F
:102480000124F3E70224F1E7ED230020FC150020EE
:102490004B3000201101001000ED00E000B5DFF826
:1024A00024C083B0014605230022CDF800C00448B3
:1024B000FFF786FD0028A8BFC0F1330003B000BDC0
:1024C00058300020FCC20010014B0B4403607047E1
:1024D000E423002070B5104C104DAC420ED2FF2604
:1024E000236863B1FFF7AEFD01462046FFF7ECFF1E
:1024F000A680BFF35F8F0834AC42F1D370BDFFF705
:10250000A1FD01462046FFF7DFFF2671BFF35F8F75
:102510000834AC42E4D370BD101F0020181F002007
:1025200010B50446FFF78EFD01462046FFF7CCFFAD
:10253000FF232371BFF35F8F10BD00BF10B50446AA
:102540000120FFF78BFD034B03442360BFF35F8F34
:1025500010BD00BFE4230020024B0B440360BFF317
:102560005F8F7047E42300200D4B1A68EFF3108152
:1025700072B6D2E8CFCF0120BCF1000FF9D1C2E88A
:102580004C0FBCF1000FF4D1BFF35F8F00221B682A
:10259000C3E88F2F81F3108840BF002000217047CF
:1025A000F42F0020000000002DE9F04F2DED028BEC
:1025B00085B0EFF30583DBB2103B9A0818BF012208
:1025C0004FF0010103F0030B18BFA94CA94B08BF42
:1025D000A94C0BEB820253F8225001FA0BF204F5DE
:1025E00041539FEDA18B02925A602FE0AB881904F2
:1025F00040F19480AB79002B40F0DE80B5F90860A3
:10260000002EC0F21C816B6906EB460603EBC60385
:10261000D3E90267B7F1FF3F08BFB6F1FF3F0ED025
:1026200004EB8B01A36A0A69D21AF31A934205D309
:102630000123226A03FA0BF3134200D10E612046F4
:1026400000F032FCB042B941C0F2F980B5F908603F
:10265000029B002EE363C9DBD5F8149006EB460A13
:1026600009EBCA07BB682046D7F80C80019300F03D
:102670001BFC019B984271EB0801B7DBB8F1000F1E
:10268000C0F2C080D7E904317C4A934200F0F88060
:102690007A88B5F9080092B242EA004098470246AB
:1026A0000B4652EA030100F0AD80002B80F2CD8092
:1026B0000199B1EB020E68EB030839F93A30C7E92A
:1026C00002E8002B92DB686903EB430200EBC202D5
:1026D000D2E90271BE4578EB010C4FEA430285DB7B
:1026E000AC462CF8083F06E003EB430100EBC101C8
:1026F0005A00D1E90271BE4578EB01011A4405DBAD
:1027000030F9323000EBC20C002BEDDA29F83A3008
:10271000ACF80060AB8819043FF56CAF2B69EFF3A0
:10272000108272B6D3E8CF0F01210028FAD1C3E896
:10273000401F0028F6D1BFF35F8F4FF6FF76A888C1
:102740000023296900B2AE80C1E88F3F82F3108870
:102750009842FFF64FAF0746A1466E6905F108089B
:10276000B5F9083007EB470E002BC44606EBCE0246
:1027700015DBD2E90240AA46019704E036F935306C
:102780009446002B09DB03EB430506EBC502D2E9B7
:102790000271BC4270EB0101F0DA5546019FACF8C2
:1027A000007036F93E7026F83E30002FD8DAAB794B
:1027B0004C46002B3FF422AF0023AB71B5F9086003
:1027C000721C33463BD0686905F1080E03E08E4663
:1027D0005A1C3FF415AF03EB430200EBC2014F88D4
:1027E0009C463F0430F93230F1D5664581ED028BCD
:1027F000EED0AEF800302989664620F83210A5F8F0
:1028000008C0E5E739F83A302B812B69EFF31082E5
:1028100072B6D3E8CF0F01210028FAD1C3E8401FD8
:102820000028F6D1BFF35F8F6B88296929F83A3009
:1028300000236E80C1E88F3F82F31088D6E640BF48
:1028400005B0BDEC028BBDE8F08F204603930192EA
:1028500000F02AFB019A039B10EB020E43EB0108E8
:102860002BE700BFAFF30080FFFFFFFFFFFFFFFF7D
:1028700000800B40B42D002000000B40A925001063
:1028800008460B69039198470028BBD00399D1E90A
:10289000002306E738B5384B1C692CB1BDE8384039
:1028A0000A213648FFF710BE0321354800F0EAFA46
:1028B000334D314BDD60FFF7C5FB324A4FF0504ED0
:1028C000024403202C4B4FF00F0C18701A61DEF8F5
:1028D00000204FF6FF715A705A69A3F802C01483A2
:1028E0004FF00204A2F848404FF00404A2F87840E8
:1028F0004FF00504A2F890404FF00604A2F8A8405B
:102900004FF00704A2F8C0404FF00904A2F8F040CD
:102910004FF00A04A2F808414FF00B04A2F820413E
:102920004FF00C04A2F838414FF0010414864FF028
:102930000804A2F8D840144C4FF00D0E4FF00E0CC6
:102940009C6008249980A2F850E1A2F868C1A2F81E
:10295000600011800D4A2C620D49D360FFF706FC20
:1029600001210320FFF7C0FB0A4B0A211C64034826
:10297000BDE83840FFF7A8BD44160020F42F002022
:1029800000000B40E4230020FFFF1000B42D0020C6
:10299000A925001000200B40004870474416002075
:1029A000F0B583B09DF828401D46034654B9CDE9E3
:1029B000000200F081FA019A009B824265EB01015E
:1029C000A1425BDB1969EFF3108072B6D1E8CF6FDB
:1029D0000124002EFAD1C1E8464F002EF6D1BFF3F4
:1029E0005F8FB3F902401F69002C3EDBD3F814C09F
:1029F00004EB440E3CF83E10002659800CEBCE014F
:102A0000C7E88F6F80F310884888C1E9022501303C
:102A1000C0F30E00012838BF0120089A48800A61DF
:102A2000099A40EA04404A611A69EFF3108172B6CC
:102A3000D2E8CF7F0125002FFAD1C2E8475F002FEF
:102A4000F6D1BFF35F8F9A882CF83E201A699C80DC
:102A5000C2E88F6F81F3108801211C78DA68A140E9
:102A600002F50153596003B0F0BD0023C7E88F3F62
:102A700080F310884FF0FF3003B0F0BD204603B064
:102A8000F0BD00BFF0B516461F4602690346EFF3DE
:102A9000108072B6D2E8CF4F0121002CFAD1C2E8E3
:102AA000441F002CF6D1BFF35F8FB3F902101D69EC
:102AB000002945DBD3F814E001EB41023EF8324037
:102AC0000EEBC20C5C800024C5E88F4F80F31088A9
:102AD00005983546CCF8100006983E46CCF8140010
:102AE000BCF80200CCE902560130C0F30E00012808
:102AF00038BF0120ACF8020040EA0140D3F810C012
:102B0000EFF3108572B6DCE8CF7F0126002FFAD1F3
:102B1000CCE8476F002FF6D1BFF35F8FB3F804C046
:102B20002EF832C099801A69C2E88F4F85F3108859
:102B300001211C78DA68A14002F501535960F0BD0B
:102B40000023C5E88F3F80F310884FF0FF30F0BDC1
:102B500003464089B0EB214F3ADD58690A1402EB75
:102B6000420210B5D3F810C000EBC200EFF3108E94
:102B700072B6DCE8CF4F0122002CFAD1CCE8442F0A
:102B8000002CF6D1BFF35F8F428889B292B28A429D
:102B900007D000221B69C3E88F2F8EF31088002016
:102BA00010BD6FEA42426FEA524242800121002288
:102BB00018699971C0E88F2F8EF3108893F800C0C0
:102BC000DA68084602F5015301FA0CF1596010BDAC
:102BD00000207047407870472DE9F04182B00446EC
:102BE0000D4600F069F94FF0FF326FF000432418F2
:102BF00045EB0105A24273EB05013CBF14461D469F
:102C0000A61F45F1FF37B44275EB07033CBF002612
:102C1000374600F051F9301A67EB0101012871F1D4
:102C2000000106DA2046294602B0BDE8F04100F076
:102C30007DB900F041F9864267EB010100290ADB0A
:102C40000021174B3246009316483B460191FFF78F
:102C500019FF0130E6D04FF0000C134A1349536AB4
:102C60009F4204D8906AB042DCD29F42DAD10B680E
:102C7000EFF3108072B6D3E8CF8F5FF0010EB8F19A
:102C8000000FF8D1C3E848EFB8F1000FF3D1BFF35C
:102C90005F8F0B68C3E88FCF80F3108820BFDEE71B
:102CA000692500104416002000000B40F42F00207E
:102CB0002DE9F04182B0064600F0FEF84FF47A7339
:102CC00004464FF0FF306FF00042E6FB0341A042A4
:102CD00072EB01033ABF044615460D46A61F45F1A7
:102CE000FF37B44275EB07033CBF0026374600F0C0
:102CF000E3F8301A67EB0101012871F1000106DAEF
:102D00002046294602B0BDE8F04100F00FB900F0BE
:102D1000D3F8864267EB010100290ADB0021174B3B
:102D20003246009316483B460191FFF7ABFE013057
:102D3000E6D04FF0000C134A1349536A9F4204D85F
:102D4000906AB042DCD29F42DAD10B68EFF3108078
:102D500072B6D3E8CF8F5FF0010EB8F1000FF8D153
:102D6000C3E848EFB8F1000FF3D1BFF35F8F0B68F2
:102D7000C3E88FCF80F3108820BFDEE769250010FD
:102D80004416002000000B40F42F0020EFF30582D2
:102D9000D2B282B1384B5A6A8A4202D2002210461D
:102DA000704714BF012200229B6A834228BF42F071
:102DB00001021046704770B584B003922F4A064650
:102DC000D368157818460C46029300F06DF8029B04
:102DD00005F1040C53F82CC0039AACEB000C301A2C
:102DE00064EB0101604571F100010FDB20BF224B54
:102DF000596AA14207D314BF012200229B6AB34241
:102E000028BF42F00102104604B070BD029200F0EB
:102E100053F8864264EB01010029029A1BDB184932
:102E20002346CDE9001215483246FFF72BFE011E5E
:102E300011DD114B5A6AA2421CD39B6AB34217D3CD
:102E40000E48FFF785FE0C4B5A6AA242D3D20022ED
:102E5000104604B070BD084B5A6AA242F7D3121B49
:102E600018BF01229B6AB34228BF42F00102CAE7A1
:102E7000A242E5D120BFE3E700000B40441600204A
:102E80006925001010B4054B054C064AA04214BF3A
:102E90001846581C10BCFFF767B800BF1028002068
:102EA00000800B4018C300100346416A0A46986A26
:102EB000596A8A42FAD17047034B596A0A46986A9E
:102EC000596A9142FAD1704700000B4000B58E4616
:102ED000154A536A9C46916A536A6345FAD1401871
:102EE00053EB0E034FF0000228BF0122BAB10E4B84
:102EF0005A6A531C08BF104608D04FF0FF331846DB
:102F000009494A6A9A42FCD39A4207D1064B02E029
:102F1000596A914202D1996A8142F9D300BD024AAD
:102F2000526A9342ECD8EFE700000B40074A536A1D
:102F30009942FCD8994207D1044B02E05A6A914267
:102F400002D19A6A9042F9D8704700BF00000B4046
:102F500070B5044682B006200E4600F0EFF8002857
:102F600044D0384A3848944214BF4FF080624FF042
:102F70000062364B364902601A608D6832EA0505F8
:102F8000FBD1304A4FF48070A21AB2FA82F2314972
:102F9000520921F81200062000F0D0F8C200B2FB5E
:102FA000F6F20132D10923D1402601236362A162E6
:102FB000256BEB0725D42346002153F82C2F062040
:102FC00003F5805211602563019200F0B7F840F2DA
:102FD000013503218000B0FBF6F0E36A019A83F02B
:102FE000700303F07E0313602563A16402B070BD1B
:102FF0004FF6FE7081421DD929464FF6FF73164EDB
:10300000D4E740F2013204F540531A63636AA26ABE
:10301000062002EB8312019200F090F80F4B019A08
:10302000A3FB00139002DB0AB0FBF3F00021FFF7D3
:103030004DFFC0E7C2F345020B4602EB8116114675
:10304000B4E700BF0080074000200240003002408B
:103050000000024024300020C0FF3F00757B2B8F12
:1030600000EB400C4FEA8C0C0CF1804C0CF5803CD2
:1030700070B51E46DCF80430041FB3F5803F38BF3E
:103080004FF48033E4B238BFCCF80430012C2ED991
:103090004FF40065284B0CF5405ECEF8005053F815
:1030A00020E0BEF1000F17D1DCF800E0012C8EEA21
:1030B000421202F0E0020CF5805ECEF800202BD91F
:1030C0004FF4006143F820604FF480330CF5005258
:1030D0001160CCF8043070BD5D69B5FBFEFE0EF1E9
:1030E000010E0EEB4E0EBEF1030EFCD2DCE7012901
:1030F000CED103240CF540531C60DCF80830DB070C
:10310000FBD5DCF800300CF5805E83EA421303F057
:10311000E003CEF80030084B0122DCF800404C40C0
:1031200004F00304CEF8004002FA01F1DCF80820B4
:103130000A42FBD0C4E700BF14280020014B53F81B
:10314000200070471428002010B5029C8E464FEADC
:10315000043C4CEA034C1C4BB3FBF1F30168B2FB9B
:10316000F3F4002920DB194A194B904214BF4FF4A5
:1031700080424FF4004217491A6003F580531A60E9
:103180008B6832EA0303FBD1212200F5405304335C
:10319000C0F800E084601A600268002AFCDA0822A5
:1031A000C0F80CC01A6010BD036803F03F037345FC
:1031B000D9D18368C3F30B03A342D4D1C36803F40A
:1031C000EE236345CFD110BD001BB7000080054042
:1031D00000200240000002404FF0804C214B00B51F
:1031E000C3F800C0002839D0DFF888C0A3F54053E9
:1031F000C3F81CC0DFF880C040F0010080EA0C0C6E
:10320000C3F820C0596298624FF0804E4FF0E061E1
:10321000144B1548DFF864C0C3F800E0C0F808C0DC
:1032200019602AB94FF00042A3F580531A6000BD1F
:103230004FF47A7303FB02F2B2F1807F2ABF6FF082
:103240007F4313461A464FF08041DFF834C00748E9
:10325000CCF80030064B4260196000BD034BD861CA
:10326000D2E700BF00B00D4000A0014000800D403B
:1032700000A00D40D3C007B02D3FF84FF3FFFF0172
:10328000242D0020012300EB4000800000F180404D
:1032900000F5841041600360704700BF10B5002442
:1032A00082B00B46E48A002141E800F1CDE9000339
:1032B0004B0254BF1021042144F25220A047DDE903
:1032C000002386460A214FF48170F44602B0BDE81F
:1032D000104060470023DB8A002242E800F25202DD
:1032E00001D4102118470421184700BF08B5034630
:1032F0000846191E02DB1AB140F03000FFF7CEFF7E
:1033000040F02000FAE700BF034AD2F82838002B2B
:10331000FBD0BFF35F8F704700000E400021044BCD
:10332000044ABFF35F8F43F8041B9342F9D17047FF
:103330000C080E402C080E404FF42A6C4FF48D7090
:10334000054A064B0649C2F800C0D06019605368B0
:10335000002BFCDA704700BF0080044000A004404E
:1033600000B0FA00704700BF08B50148FEF7E4FD61
:103370003CC3001038B5054C054DAC4204D254F89E
:10338000043B9847AC42FAD338BD00BF20C00010C0
:1033900060C000100648DFF828C0064B064A0749FF
:1033A000C0F800C01A608B6832EA0303FBD1704793
:1033B0000020024000300240F6FFF303000002400C
:1033C0007F3BEFEF044BDB6CB3F5004F03D14FF4C1
:1033D0008022024BDA647047000011500020115027
:1033E0004FF0E022044BD2F8881D0B43C2F8883D11
:1033F00010EE3004704700BF030330006FF06041EF
:10340000044B054A19609368DB4333F06043FAD1FB
:10341000704700BF003002400000024010B545F286
:103420005320FFF757FFBDE810400346042018471C
:1034300010B545F25320FFF74DFFBDE8104003469D
:1034400001201847FEF724BE1449154B70B55C1ACD
:10345000A610442E324628BF4422124D9200284620
:1034600007F064F8B4F5867F13D80F4A14D0C6F17C
:1034700044002B19410803EBC101C3E900220833C2
:103480009942FAD1C30704D520F00100304445F831
:103490002020064B9D6070BD4320F8E7000000101F
:1034A00010010010000000201101001000ED00E0EC
:1034B000002370B52B4C82B0C4F88430FFF73CFF7A
:1034C0000122294BDA63636C012BFCD10321264ACC
:1034D000244B11639C6B012CFCD10226052521464F
:1034E0000523224A22480096FFF72EFE21462B464E
:1034F000204A21480095FFF727FE0022042031468C
:103500001E4BFFF7ADFD2146284600221C4BFFF75E
:10351000A7FD0022082011461A4BFFF7A1FD00224B
:1035200009201146174BFFF79BFD0022062011468C
:10353000134BFFF795FD0022114B07201146FFF7B3
:103540008FFD0420FFF7FAFD00240F4BA3FB00358D
:10355000AD0CE0B229460134FFF794FE062CF8D1F9
:1035600002B070BD0000014000300140002F6859DA
:1035700000000540008C864700800540001BB70016
:1035800080D1F008006CDC0283DE1B4386B003B4FC
:1035900051FC0804CDE9020151FC0904CDE9040104
:1035A00051EC0A04CDE9060103BCF047BDE8005028
:1035B0004EEC00C4BDE800504EEC01C4BDE8005024
:1035C0004EEC02C400BD000000B5FFF7DFFF02E0D3
:1035D00010FE30F4F8D441EC100443EC112400EE5A
:1035E000010410EE010480EE200451EC1004704739
:1035F00000B5FFF7CBFF02E010FE30F4F8D441EC49
:10360000100443EC112400EE010410EE210480EEBE
:10361000200451EC3004704700B5FFF7B7FF02E01B
:1036200010FE30F4F8D410B541EC100443EC112432
:1036300051EC040453EC0524A0FB024C5FF0000E97
:10364000E0FB03CEE1FB02CE4CEC20440024E1FB86
:1036500003E444EC30E480EE200451EC5004BDE877
:103660001040704700B5FFF791FF02E010FE30F404
:10367000F8D441EC100443EC112451EC2104A0FBDC
:1036800001126FEA820252FB100052FB12F252FB4F
:103690001000A0EBD07C53EC04245CFB13F153EC42
:1036A0001524A1FB022001FB030053EC4424A2EBF0
:1036B000000050FB1CF24FEA111312EB017043EBB8
:1036C000E27140EA515020EA915020F0070053EC9B
:1036D0007524A0FB023C53EC752400FB03CC01FBDA
:1036E00002CC53EC0424ACEB824C40EA5C70A0F1B9
:1036F000010041EC400480EE200451EC700470475E
:1037000000B5FFF743FF02E010FE30F4F8D441ECBF
:10371000100480EE220410EEB204704700B5FFF7EB
:1037200035FF02E010FE30F4F8D440EC700400EEF7
:10373000010410EE210480EE200451EC30047047A7
:1037400000B5FFF723FF02E010FE30F4F8D440ECA0
:10375000600400EE010410EE210480EE200451EC20
:103760003004704700B5FFF711FF02E010FE30F49F
:10377000F8D441EC800400EE010410EE010480EE68
:10378000400410EE1304704700B5FFF7FFFE02E09F
:1037900010FE30F4F8D441EC800400EE010410EE89
:1037A000010480EE400410EE3304704700B5FFF7CB
:1037B000EDFE02E010FE30F4F8D441EC100443ECCE
:1037C000112400EE010410EE3004C0F300707047C5
:1037D00000B5FFF7DBFE02E010FE30F4F8D441EC58
:1037E000100443EC112400EE010410EE3004C0F389
:1037F0008070704700B5FFF7C9FE02E010FE30F49C
:10380000F8D443EC102441EC110400EE010410EE56
:1038100030F48CBF01200020704700BF00B5FFF7D7
:10382000B5FE02E010FE30F4F8D443EC102441EC75
:10383000110400EE010410EE30F42CBF0120002032
:10384000704700BF00B5FFF7A1FE02E010FE30F4A4
:10385000F8D441EC100443EC112400EE010410EE06
:1038600030F42CBF01200020704700BF00B5FFF7E7
:103870008DFE02E010FE30F4F8D441EC100443EC6D
:10388000112400EE010410EE30F48CBF0120002062
:10389000704700BF0022002950DA404261EB41012D
:1038A000C9B1B1FA81F30B3B17D4D3F1200C30FA34
:1038B0000CFC9840994051EA0C011A44524202F221
:1038C000324201EB025141F0004140F2FE739A4254
:1038D00038BF704721E011467EE003F1210310FA62
:1038E00003FCA3F1010301FA03FCC3F1200320FA56
:1038F00003F021FA03F140EA0C00A3EB020202F20A
:10390000324214D050F1000041EB025141F000412D
:1039100040F2FE739A4238BF70474FF00001A8BFD3
:10392000C7F6F0714FF00000704700217047EBD3ED
:1039300050F1000020F00100E6E70022B9B1B1FA31
:1039400081F30B3B16D4D3F1200C30FA0CFC9840D9
:10395000994051EA0C011A44524202F2324201EB00
:10396000025140F2FE739A4238BF704720E0114680
:1039700000F066B803F1210310FA03FCA3F1010380
:1039800001FA03FCC3F1200320FA03F021FA03F14A
:1039900040EA0C00A3EB020202F2324212D050F1D4
:1039A000000041EB025140F2FE739A4238BF70476B
:1039B0004FF00001A8BFC7F6F0714FF0000070474C
:1039C00000217047EDD350F1000020F00100E8E73E
:1039D000002880F235804042B0FA80F30B3B11D4CE
:1039E000984001EB0302524202F2124200EB0251F4
:1039F00041F000414FF0000040F2FE739A4238BFA0
:103A0000704713E0C3F1000330FA03FCC3F1200256
:103A10009040A3EB010202F212420CEB025141F082
:103A2000004140F2FE739A4238BF70474FF00041A8
:103A3000A8BFCFF6F0714FF000007047002170472B
:103A400060B3B0FA80F30B3B0FD4984001EB030254
:103A5000524202F2124200EB02514FF0000040F2DB
:103A6000FE739A4238BF704710E05B4230FA03FCA5
:103A7000C3F120029040A3EB010202F212420CEBD0
:103A8000025140F2FE739A4238BF70474FF0000176
:103A9000A8BFC7F6F0714FF00000704700217047D3
:103AA0000022A2F232425FEA215CACF10103A1EBF9
:103AB00003515B0513F5800F32D212EB535210D431
:103AC0000B2A36DA9140D2F1200330FA03F319437E
:103AD0009040BCF1000FA8BF7047404261EB41012C
:103AE000704720320EDD01FA02F3D2F12002D140FC
:103AF000D0401843BCF1000FA8BF7047404261EBB3
:103B000041017047524282F3050231FA02F000216E
:103B1000BCF1000FA8BF7047404261EB4101704704
:103B200002D000200021704750EA013118BF4FF049
:103B3000000C6FF0004101EBDC716FEAEC70704734
:103B4000704700BF2DE9F04F83B00F461146DDE905
:103B50000EB292079846DDE90C93064629D00D4631
:103B60009BB109EB030405EB040A01950D460D9387
:103B7000AAEB040214F8010D43463946B047A145AB
:103B8000F6D129460D9B019D1D440F9B9B070CD52B
:103B90006C1AA34509D92A464346394620200134E8
:103BA000B0475C4505F10105F5D3284603B0BDE8F3
:103BB000F08F5B4515D28A461C468946ABEB030560
:103BC0000D4452464346394620200AF1010AB047C7
:103BD000AA45F6D149462346DDF83090002CC0D1E5
:103BE000E3E70D46002BBCD1DFE700BF2DE9F04F26
:103BF0000F460F9906469DF82C008D079046DDE98B
:103C00000CA299468346099CDDF828C00E9B49D436
:103C1000002B42D1944545D201F0010504F1FF3E4D
:103C20003020E64405E00CF1010C62450EF8010F6E
:103C300002D9BCF1200FF6D1002D00F0878063453A
:103C400030D9601E4FF0300E604405E00CF1010CDD
:103C50009C4500F801EF25D0BCF1200FF6D1CD0630
:103C60000ED5480551D4624564D0634562D0BAF19F
:103C7000100F4DD0BAF1020F55D0BCF1200F2DD14D
:103C80002022CDE90B310A924B4642463946304656
:103C90000994BDE8F04FFFF755BF11F001052ED193
:103CA0009445BBD3CD061ED54805E0D4BCF1000F2A
:103CB000D9D1BAF1100F5FD0BAF1020F74D030220F
:103CC0004FF0010C2270BBF1000F12D1480742D512
:103CD0002B2204F80C200CF10102D2E762460CF111
:103CE000010C3020A054BCF1200FC9D0BBF1000F53
:103CF000ECD02D2204F80C200CF10102C1E798B39E
:103D0000944503F1FF3389D399E7BAF1100FB7D186
:103D10008D063DD5BCF1200FB2D0582204F80C20FE
:103D20000CF1010CA9E7BCF1200FA9D062460CF1FF
:103D3000010C08E0BCF10102BBD0BAF1100F35D084
:103D4000BAF1020FCDD16220A05496E7CD06CAD5B4
:103D5000480588D58BE70A0749BF2022624604F848
:103D60000C200CF101028CE711F00C0F00D0013B8C
:103D70009445FFF453AF62E78A0613D47822227089
:103D800030224FF0020C6270BBF1000F9ED0B0E702
:103D9000BCF1200F3FF474AF782204F80C200CF132
:103DA000010C6AE75822EAE76222E8E78D06ACF1E7
:103DB000020004D54FF0580E04F800E091E74FF0F0
:103DC000780E04F800E08CE700B9704701F018BCE9
:103DD00010B1D1E900311847704700BF0000000062
:103DE0002DE9F04F97B09DED207BDDE9225B804609
:103DF000894651EC170B9A46249B0C920793024676
:103E00000B468DED047BFFF7D5FC002840F0E381E5
:103E1000DDE904014FF0FF326FF48013FFF7EEFC91
:103E2000002840F0CB80DDE904014FF0FF32B24BB7
:103E3000FFF720FD002840F09F80DDE90467AAA37A
:103E4000D3E9002330463946FFF714FD002840F03F
:103E50008280A7A3D3E9002330463946FFF7CEFC82
:103E6000002878D13046394600220023FFF7C6FCEF
:103E7000002840F098800D90079B302113F4806F4C
:103E800008BF06250EAA2B46A5F1200605E0013B3A
:103E9000B34202F8011B00F06581092BF7D81E46DA
:103EA000ED1ADDE90401FFF761FC944B044603EBD6
:103EB000C60393ED007B8DED087BFFF733FC0246D4
:103EC0000B46DDE90401FFF797FBDDE90823FFF767
:103ED000A7FBCDE90A01FFF75BFC0746FFF734FCBF
:103EE00002460B46DDE90A01FFF786FB0022844B00
:103EF000CDE90A01FFF7BEFC002800F088800137F9
:103F00003846FFF721FC02460B46DDE90801FFF7C2
:103F100089FC08B100270134002E00F088800DF1E3
:103F20003703DFF8F0C158190DE0ACFB0721C908D1
:103F300001EB8102A7EB42023032092F00F8012F7A
:103F400040F2FB800F46202D06F1FF3605F10105FA
:103F5000EBD1202586E0079B9DED047BCDE923B3C3
:103F60004946534640460C9A8DED207B229517B06A
:103F7000BDE8F04F00F080B9079B494658074CBF99
:103F800004230323404621935346079A48BF5D4CC0
:103F9000CDE922B258BF5C4C0C9A209417B0BDE812
:103FA000F04FFFF7CFBD3B46324600200021FFF720
:103FB00023FB0123CDE904010D935DE7079B03F08B
:103FC00002029C07049200F0F4800C9F3D464F4E85
:103FD000341D14F8010D2A4653464946C047A642EF
:103FE00005F10105F5D1049B3C1D63B10C9D631BDC
:103FF0009B4508D922465346494620200134C047F4
:10400000631B9B45F6D8204617B0BDE8F08F002211
:10401000DDE90A013A4BFFF7F1FB00287FF47CAFA2
:10402000002F40F0C2800137002E7FF478AF204689
:10403000FFF778FB02460B46DDE90401FFF7DCFAE7
:1040400000222F4B06460F46FFF7D8FB40B93046FB
:10405000394600222A4BFFF70DFC002800F0A18012
:104060000DF137032A4859190EE080FB0476C2EBA4
:10407000A60202EB8206A4EB460630361446013552
:1040800001F8016F002A47D0202D4FEAE472ECD1ED
:10409000079A02F00302012A14D1BBF1000F11D0DC
:1040A0000D9A002A60D00BF1FF3BBBF1200F09D91C
:1040B00030222B4404E001355D4503F8012F31D255
:1040C000202DF8D1079B0EACCDE902B300945346E6
:1040D000494640460C9A0195FFF734FD04462046B8
:1040E00017B0BDE8F08F00BF0000000065CDCD41E6
:1040F0000000000065CDCDC1FFFFEF7F30C600108E
:104100000000E03F90C3001098C30010A0C300104F
:1041100067666666CDCCCCCC079A02F00302012A12
:1041200000F09680202DCDD00D9B3BB32D220DEBC2
:10413000050383F838200135C4E7202D3FF409AF8B
:1041400030212E445A1905E00135202D02F8011FB7
:104150003FF4FFAEAE42F7D12E226E44013586F811
:1041600038207FE720259CE6079A12F00C0F5AD0E2
:104170000BF1FF3BAB459BD8202DA3D0079B5A07E3
:1041800006D52B220DEB050383F83820013599E77E
:104190001B0797D520220DEB050383F83820013546
:1041A00090E7013424F001045AE7F9077FF5B4AE33
:1041B00039E7BBF1040F7FF608AF0C9B1D46043BAB
:1041C00003EB0B072A465346494620200135C047DA
:1041D000AF42F7D1FAE6079B03F002029D07049273
:1041E00025D00C9F3D46224EF41C14F8010D2A46A2
:1041F00053464946C047A64205F10105F5D1049B47
:10420000FC1C002B3FF4FFAE0C9D631B9B457FF60F
:10421000FAAE22465346494620200134C047631B6C
:104220009B45F6D8EFE6AB453FF642AF4AE7BBF118
:10423000030FD6D90C9B1D46033B03EB0B072A4605
:104240005346494620200135C047BD42F7D1C9E752
:10425000BBF1000F3FF466AF0D9A002A84D00BF13A
:10426000FF3B5D45FFF424AF202D7FF45FAF29E7CE
:104270009CC30010000000002DE9F04F9FB01E46C7
:10428000DDE928ABDDE92B982A9B04460D460B920D
:104290000A9352465B4650465946FFF78BFA002870
:1042A00040F0C680504659464FF0FF327B4BFFF737
:1042B000E1FA002840F0BC80504659464FF0FF32EA
:1042C0006FF48013FFF79AFA002840F0B18050464F
:1042D000594600220023FFF791FA002840F0DD81C3
:1042E000CDE908ABDDE9081218F480600B460F46F3
:1042F00008F400610C921491159040F0A8801343CB
:1043000040F0D080002940F0EC8106230A9318F099
:104310000202109240F0DD814B46042B38BF04238B
:104320000E920422043B12921493504659460022E6
:104330000023FFF763FA002840F02A829DED087BF6
:10434000149B0B9A03930A9B8DED007B029328F438
:1043500000630493294633462046FFF741FD024699
:1043600018F0200F334629460CBF6520452002F186
:104370000108A047129B0DF1580A03F1FF3B0E9B69
:10438000002283EAE37C5046DFF814E10B9FACEB9C
:10439000E37CD90FCDF8208002E0202AC44610D05B
:1043A000AEFB0C384FEAD80808EB8803ACEB4303AC
:1043B00001303033BCF1090F02F1010200F8013C79
:1043C000EBD805234FF0000C06930A23DDF820807C
:1043D000CDE90121CDE9033CCDF800A033464246AA
:1043E00029462046CDF814B0FFF700FC109B82460A
:1043F000D3B1A0EB0708C14516D907EB0802334635
:104400002946202008F10108A047C145F5D87B1EA8
:104410004B44C7F10102A3EB0A035244914538BF54
:1044200000230AF1010A9A4450461FB0BDE8F08FFC
:10443000334629462046CDE928AB0A9CCDE92B9886
:104440000B9A2A941FB0BDE8F04FFFF7C9BC57EA9A
:10445000020329D100293FF45AAF00230E930A9B8F
:104460000E9A934200F3BA81002750465946002223
:104470000023FFF7C3F9002840F015819DED087B6C
:1044800028F4006343F480632C938DED287B33463E
:1044900029462046CDE92A790B9AD3E7FFFFEF7F23
:1044A000CDCCCCCC06230A930C9BC3F30A50A0F2CC
:1044B000FF30FFF737F9B2A3D3E90023FFF7B0F8D5
:1044C000B1A3D3E90023FFF783F80C9BCDE90E01DC
:1044D000C3F3130343F07F5138460022A24B41F44B
:1044E0004011FFF789F894A3D3E90023FFF798F868
:1044F00002460B46DDE90E01FFF76AF8FFF736F9D1
:104500000E90FFF70FF98EA3D3E90023CDE90C013C
:10451000FFF786F80022954BFFF75AF8FFF726F9C8
:1045200089A3D3E900230746DDE90C01FFF778F8FA
:10453000CDE90C013846FFF7F5F885A3D3E9002350
:10454000FFF76EF802460B46DDE90C01FFF754F861
:1045500002460B46CDE90C23FFF762F8CDE91001C6
:10456000DDE90C0102460B46FFF732F80022CDE9E7
:104570001201DDE910017E4BFFF778F800227D4B38
:10458000FFF726F802460B46DDE91001FFF76EF84B
:104590000022794BFFF71CF802460B46DDE91001BB
:1045A000FFF764F8CDE91001DDE90C2300204FF09E
:1045B0008041FFF721F802460B46DDE91001FFF7C5
:1045C00007F802460B46DDE91201FFF74FF800221B
:1045D0006A4BFEF7FDFF07F2FF3C00224FEA0C5347
:1045E000FFF71EF802460B46DDE90801CDE90C2372
:1045F000FFF704F950B1DDE90C010E9B0022013BED
:104600000E935C4BFFF732F8CDE90C01DDE90C01AC
:104610000E9B02466333C62B08F002031093149BD3
:104620002DD8002B5FD0042312930A433FF417AF19
:10463000DDE9080148A3D3E90023FFF707F948B1F2
:10464000DDE9080146A3D3E90023FFF7D7F80028E6
:104650007FF405AF0A9B002B51D0159A002A00F079
:10466000AC80013B0A93129B994505D9109B002B06
:1046700000F0AF80022310930023149344E02BBB7F
:10468000B9F1050F4FD908F00203002B49D10523DA
:104690001293A9F1050314933AE00BF10043CDF80E
:1046A00020A009931EE628F4006343F480632046AB
:1046B000CDE92A792C933346DDE90867344629464B
:1046C00007F10045CDE928450B9ABBE60523129377
:1046D000ABE70222002310920422149312920E934D
:1046E00023E60527C1E6B9F1040F1FD9109B002B63
:1046F00077D104231293A9F10403149304E0129BCD
:1047000099455FD80A9B14930E9B002B3FF40DAE86
:10471000DDE90801DDE90C23FEF7A8FFCDE908017A
:1047200003E60223109305231293F1E70423129367
:10473000EAE700BFAFF3008061436F63A787D23F12
:1047400071A379094F930A401655B5BBB16B02406E
:10475000EF39FAFE422EE63F2D431CEBE2361A3FBC
:104760000000000080842E410000F83F0000E03F80
:1047700000002C4000002440000018400000F03FE2
:10478000FB799F501344D33FB3C8608B288AC63F40
:10479000149BDDE908A703930A9B07F1004B0293E2
:1047A00028F400630B9A0493294633462046CDE94A
:1047B00000ABFFF715FB0246D2E5129B994515D8D1
:1047C0001492A1E7109B23B10A9B14930223109328
:1047D0009AE7129BA9EB0303149395E79B1A5F1EBC
:1047E00043E604231293022310938DE7109B002BC2
:1047F000EFD002231492109386E700BF2DE9F04F0B
:1048000091469A4C9A4AB1F1000A9BB018BF834670
:1048100014601878974ADDF8908008BF9346002806
:1048200000F08A821D460026CDF8209008E032462E
:104830005146089BD84701362878002800F0C780E9
:10484000252805F10105F2D100222B4613F8011BA2
:10485000A1F1200010280AD8DFE800F03F09093B49
:104860000909090909090937093309092F00A1F1C3
:104870003000092840F289802A2900F0E9800024CC
:104880002E2900F094800027A1F1680012282CD86E
:10489000DFE810F04E012B0049012B0040012B00F6
:1048A0002B002B002B002B002B002B0027002B00B4
:1048B0002B002B002B002B0027001D4642F001028D
:1048C000C3E71D4642F00202BFE71D4642F0040264
:1048D000BBE71D4642F01002B7E71D4642F0080252
:1048E000B3E7697842F48072013367291D467ED8A8
:1048F000242940F2B880A1F12503422B00F2B380B5
:10490000DFE813F05101B100B100B100B100B10016
:10491000B100B100B100B100B100B100B100B1000F
:10492000B100B100B100B100B100B100B100B100FF
:10493000B100B100B100B100B100B100B100B100EF
:10494000B100B1001E013A011E01B100B100B10079
:10495000B100B100B100B100B100B100B100B100CF
:10496000B100B100B100B100B100B401B100B100BB
:10497000B100B100B100B100B100B100B100B401AB
:104980005801B4011E013A011E01002404EB840405
:1049900001EB440419781D46A1F130000928A4F167
:1049A000300403F10103F1D92E297FF46CAF69784B
:1049B0001846A1F13007092F42F4806240F22581A8
:1049C0002A2900F032811D46002701335CE7344676
:1049D000DDF82090B14501D809F1FF364B4632464B
:1049E00051460020D84720461BB0BDE8F08FA1F10A
:1049F0006903DBB20F2B36D8012049F2410C9840F5
:104A000010EA0C0040F0F4800A2B35D0072B2AD195
:104A100058F8041B002940F0108122F0100412F411
:104A2000806144F0210400F00A8112AA0823059352
:104A30001023CDE900203246069404970393002307
:104A4000029351465846089BFFF7D0F80646F3E616
:104A500058F8044B6978002C1D46BCBF42F0020296
:104A6000644201330CE70846E1E600BFFD47001051
:104A7000202D0020413B001058F8049B002F99F88E
:104A8000000014BF3B464FF0FF33002800F0828344
:104A9000494603EB090C04E011F8013F002B00F03C
:104AA00043818C45F8D1ACEB0901530540F12081DD
:104AB000B94228BF394612F0020300F08382022374
:104AC000CDE9094832468846089C37440B9307E0F5
:104AD00023465146D84719F8010F013610B1324626
:104AE000B742F5D10B9B4146099CDDF82880002B8D
:104AF0003FF4A2AE37468C427FF69EAE2644089C19
:104B0000761A3A462346514620200137D847B74205
:104B1000F7D191E669786C297FF4E4AEA97842F484
:104B20004072EB1CE1E6697842F400720133DCE686
:104B30006978682900F0FB8042F080020133D4E6F6
:104B4000672900F0C980472900F0CD80452900F091
:104B5000CC80CDE9034208F10708029728F0070846
:104B60003246F8E802675146CDE900675846089B8F
:104B7000FFF782FB06465FE6462908BF42F02002A7
:104B8000CDE9034208F10708029728F007083246EA
:104B9000F8E802675146CDE900675846089BFFF7E1
:104BA0001FF9064648E6324651462520089BD8475D
:104BB000013641E608F104039207099306F1010763
:104BC00040F1C3803246514698F80000089BD84710
:104BD000012C40F2B4812644089C3A4623465146B3
:104BE00020200137D847B742F7D1DDF8248023E6EB
:104BF0006F2974D040F24182782900F086814FF00D
:104C00000A0922F010024B4638E0002707EB87071D
:104C100001EB4701A1F1300710F8011FA1F13003AA
:104C2000092BF3D90546431C2EE658F8047BA978D6
:104C300002356B1C27EAE77726E642F0210412AA28
:104C4000944602E020283FF4F1AE01F00F03092B57
:104C500094BF303337330F298CF8003000F1010056
:104C60000CF1010C4FEA1111ECD8DFE6582966D09F
:104C7000622940F089804FF002094B4612F4806CA3
:104C800000F0D48022F00D02099212F4007140F07D
:104C90007B8112F4807008F1040940F038825106DB
:104CA00040F13A8198F80010002940F04A81099AB1
:104CB00022F010020992BCF1000F00F04281084678
:104CC00012AA0999CDE90337CDE9054101900023E6
:104CD000009202933246A1E042F4006239E74FF0BD
:104CE00008094B46CAE742F4006242F0200230E76E
:104CF00012F0020300F08C810223CDE909481F461F
:104D00008846089C324623465146D84719F8010F79
:104D100001360028F6D13B464146099CDDF8288043
:104D2000002B3FF489ADE5E6A1EB0901BDE6A978CA
:104D300042F0C002EB1CD8E5044606464AE64FF0B6
:104D4000100942F020024B4698E7012C40F2F18016
:104D5000374606F1FF39CDF82880DDF82080A144E0
:104D60003A464346514620200137D8474F45F7D1B0
:104D7000DDF828803A4698F800005146089BD8474D
:104D80002644DDF8248057E512F4806300F0C180EA
:104D90004FF4806322F0110010F4007E4AD110F429
:104DA000807C08F1040940F03781410600F1A980B8
:104DB000020640F1E381B8F9002082EAE271A1EB3A
:104DC000E2711FFA81FED10F0991002A00F05F8184
:104DD000734612AA9646DFF8A0830A9403E0BCF15A
:104DE000200F23460FD0A8FB0314E40804EB840132
:104DF000A3EB41010EF1010E3031092B0CF1010C36
:104E00000EF8011CEBD80A9C099B0092CDE901C366
:104E10000A233246CDE9054004970393514658468C
:104E2000089BFEF7E3FEC846064605E522F00C02A5
:104E300009922AE708F1070828F00708D8F80420A3
:104E400058F808CBD10F5CEA020E6CD0002A6346FA
:104E500002DA5B4262EB42029146099312AA94463F
:104E60004FF0000ECDE90A18CDE90C470E960F92CF
:104E700003E0BEF1200F3B4630D04FF0CC3213EBB5
:104E80000901BD4F41F10001A7FB014626F00304D3
:104E900004EB9604091B5C1A02FB04F63A4669F11E
:104EA000000802FB08660522A4FB077407F001084E
:104EB0002644A8FB024864180A2B0CF1010C4FEAA7
:104EC000570704F1300479F100090EF1010E0CF8D6
:104ED000014C47EAC6774FEA5609CAD27346DDE964
:104EE0000A18DDE90C470E9E0F9ACDF824E0CDE9B3
:104EF00001310A230092CDE905403246049703931D
:104F00009FE598F8002096465DE74FF010094B4664
:104F1000B4E622F010003FE711064CBFB8F80010CD
:104F2000D8F80010C0E6002B40F042819946099362
:104F300094E73246514698F80000089BD8473E4611
:104F400053E6099A0A9412F0200F14BF4FF041085B
:104F50004FF0610812AA9446A8F10A0802E020283E
:104F600071460FD0B1FBF3FE03FB1E14092C94BF56
:104F70003034444499428CF8004000F101000CF1B7
:104F8000010CECD20A9C9CE608F1070828F00708FF
:104F9000D8F8042058F8081B0A920A438E467BD1A1
:104FA000099A22F010020992BCF1000F74D000207F
:104FB00012AA0999CDE90020CDE905413246CDE993
:104FC00003373CE58C4298BF01317FF679AD4FF451
:104FD0008063CDE909949946A2190B97089F541A4A
:104FE00032463B46514620200136D847A642F7D1EB
:104FF000DDE90A474B46DDF8249099F800000028C7
:105000003FF41AAC611C002B3FF477AE002357E548
:105010008C42DED8013170E6D8F80020D10F002A8A
:1050200000F0B38082EAE273A3EBE27312AA944623
:10503000CDE90914DFF8408103E0BEF1200F2346DB
:105040000FD0A8FB0314E40804EB8401A3EB410197
:105050000CF1010C3031092B0EF1010E0CF8011C82
:10506000EBD8DDE909140A230092CDE90540324668
:10507000CDE901E104970393D0E6692922F01000FD
:1050800040F0918012F480633FF486AE80E6002BFE
:105090003FF49FAE12AAB7E6099ACDE90B8412F04D
:1050A000200F14BF41216121CDE90D76CDE90F3BE1
:1050B000CDF844A00027F0460A9C12AE0DF1480B33
:1050C000A1F10A0A03E0202F80460C4613D02146A6
:1050D0004A460023404606F07BFFD2B2092A94BF1D
:1050E00030325244C84574F10004327007F10107B0
:1050F00006F10106E7D23846DDE90B845A460E9EDA
:105100000D9F0F9BDDF844A0DDF840B051E7D8F8C3
:1051100000E0BEF1000F0DD122F010020992BCF1A7
:10512000000F07D012AA0998CDE90337CDE9054051
:105130000191CCE5099A12F0200F14BF41206120A3
:1051400012AA94460A92A0F10A0202E02029C64659
:105150000FD0BEFBF3F803FB18E0092894BF3030F2
:1051600080189E458CF8000001F101010CF1010C42
:10517000ECD20A9AD7E700BFCDCCCCCCD8F800202F
:1051800082EAE27EAEEBE27E1DE6002B3FF44EAFFC
:1051900012AA68E712F480610ED012F0020114D056
:1051A00001463746A7E44FF00A0902464B4665E53B
:1051B000002312AA09939AE612F002037FF49AAC34
:1051C000002C7FF406AFFFF737BB002C7FF4FFAE57
:1051D000FFF732BB8C4610B584B0009302901346A3
:1051E00002A94FF0FF320348CDF80CC0FFF706FBD1
:1051F00004B010BDD13D00100FB410B50E4B84B0FB
:1052000006A91C6851F8043B03915CB100914FF072
:10521000FF3202A90948A047012004B0BDE81040B0
:1052200004B07047184600F02DFA204604B0BDE8DF
:10523000104004B0704700BF202D0020C93D001071
:1052400010B5094A84B014684CB1034600914FF080
:10525000FF3203A90548A047012004B010BD00F0AB
:1052600011FA204604B010BD202D0020C93D0010C9
:1052700000BEFDE7074A0346106838B106490344FB
:105280008B428CBF4FF0FF301360704703490846D4
:105290001160F3E7F8280020000008205C300020AF
:1052A00038B9DFF814C008461146DCE9002300F0E5
:1052B00059B94FF0FF307047D0C50010431E012B85
:1052C00009D810B51446084601230022214600F0F3
:1052D000D3F8204610BD4FF0FF3070474FF0FF303D
:1052E000704700BF4FF0FF30704700BF08B5FFF7B1
:1052F000BFFF00BF00B50C468646194683B06AB1B1
:105300001046DFF824C00190234672460548CDF8C8
:1053100000C0FFF771FF0120FFF7AAFFDFF80CC004
:105320006046F0E7B8C30010A8C300106CC10010BD
:1053300038B5064C064DFEF71DF8AC4204D254F8C1
:10534000043B9847AC42FAD338BD00BF60C00010A0
:1053500068C00010036808461146184770B5054636
:105360000846697D82B000294FD0002A25DD0378E8
:1053700014460A2B064622D0012C4FF0000E0DD009
:105380003246012312F801CF1946BCF10A0F03F18E
:10539000010320D09C42F5D1744505DD2B68A4EBB8
:1053A0000E0106EB0E009847311911F8013CA3F1EC
:1053B0000D03B3FA83F35B092B7502B070BD2B7D2F
:1053C000002BD9D102212B6813489847012CEBD030
:1053D0004FF0010ED4E712F8010C0D28DAD08E45FB
:1053E00006EB0E00A1EB0E0105DACDE900322B68C9
:1053F0009847DDE90032CDE9003202212B680648EA
:105400009847009B019A9E46C4E711462B6802B05C
:10541000BDE87040184700BF80C6001070B50B682B
:105420000C46802B054682B005D05A1C23442260CE
:105430001D7102B070BD0E4B186878B900230122AF
:10544000234422601D7102B070BD2268211D0190AD
:10545000FFF784FF019800690028EFD00368002B54
:10546000F9D0044B1B68002BEFD08342F3D1ECE75B
:1054700064280020702800202DE9F04782B0904673
:105480001C460D460746FDF717FD4FF0FF3C6FF039
:1054900000462E4A821841F10003944576EB030141
:1054A0003CBF624633462A4806F0AAFD6B1C824682
:1054B00040D00CB3274E284B1C68B4B1B8F1000F94
:1054C0001CD1DFF89C8001E0246974B12368002BB3
:1054D000FAD0D8F800300BB19C42F5D120462A46CC
:1054E0003946B0472469002CF0D1BAF1000F26D11B
:1054F000284602B0BDE8F087184EDCE74FF00A09F5
:10550000DFF85C8002E02469002CEED02368002BD9
:10551000F9D0D8F800300BB1A342F4D12A4639466D
:105520002046B047012220460DF107018DF8079073
:10553000B047E8E7384605F06FF80546B9E7044894
:1055400006F04AFD284602B0BDE8F08740420F0051
:10555000101F00205D5300106428002055530010D8
:10556000702800202DE9F84F06460D4693469946CF
:10557000DFF85880DFF858A0134FD8F8004014B96E
:1055800010E0246974B1DAF800300BB1A342F8D10D
:10559000A368002BF5D02946304698470028F0DD57
:1055A000BDE8F88F7B6A994508D8BA6A5A4503D393
:1055B0006FF00100BDE8F88F9945F9D10120002175
:1055C000FDF784FCD9E700BF00000B4064280020F1
:1055D00070280020084A136823B90AE003F110027A
:1055E0001B6933B18342F9D129B918691060196177
:1055F000704701B1106070476428002000F0E2BAE3
:10560000F0B583B006468DF80700FDF755FC4FF066
:10561000FF356FF00044174A821841F100039542AC
:1056200074EB03013CBF23462A46134806F0E8FC0E
:10563000124B07461C689CB1114D01E024697CB1F6
:105640002368002BFAD02B680BB19C42F6D1204680
:1056500001220DF10701FFF781FE2469002CEFD133
:1056600017B9304603B0F0BD034806F0B5FC30462C
:1056700003B0F0BD40420F00101F0020642800203E
:105680007028002038B5044604F0C6FF0123054603
:105690001A4620462946FFF7EFFE084B1C682CB13E
:1056A00063682BB198472469002CF9D1284638BD8E
:1056B0002469002CF4D1284638BD00BF642800209E
:1056C0002DE9F041A2B00E460546FDF7F5FB4FF07F
:1056D000FF3C6FF00044254A821841F100039445D5
:1056E00074EB03013CBF23466246214806F088FC68
:1056F0000024334607462A461E4801A90194FFF7B5
:1057000069FD1D4E019B80463468BBB1002C2AD038
:105710001A4D01E0246974B12368002BFAD02B687C
:105720000BB1A342F6D12046019A02A9FFF716FE5B
:105730002469002CF0D12346346801932CB16368AE
:1057400043B198472469002CF9D12FB9404622B0C3
:10575000BDE8F0812469F1E7054806F03DFC4046CC
:1057600022B0BDE8F0810194EFE700BF40420F0096
:10577000101F00201D5400106428002070280020F5
:105780000FB400B583B004A951F8040B0191FFF7E1
:1057900097FF03B05DF804EB04B07047704700BF9B
:1057A0000022014B1A7070474C3000204B79FF2BC0
:1057B0000BD1887948B9CB79012B07D1082A05D9B3
:1057C000034B8A7809201A7070470020704700BF89
:1057D0004C30002001207047012901D00120704782
:1057E00008B5104B91881B78994201D0002008BD64
:1057F0005378012B08D0022BF8D1002164220846EF
:10580000FDF7EAFC012008BD5188CB0548BF480AD6
:10581000C1F3402258BF4FF0FF3001F07F01FDF788
:1058200065FD00BF4C300020004870474CC7001099
:10583000012907D15378012B02D19388072B03D07C
:1058400000207047012070471146A623014A01F04D
:105850008DBA00BFA4C600100346012201481A7089
:10586000704700BF84C6001008B50B68B3F5966F8B
:1058700000D008BD00224FF0FF301146FDF736FD85
:10588000024A034B10601960704700BF04280020D3
:1058900008280020184B70B51A68002A28D0EFF3AA
:1058A000108172B6D2E8CF4F0120002CFAD1C2E8A5
:1058B000440F002CF6D1BFF35F8F00220F4C186805
:1058C00059602270C0E88F2F81F3108800240025D2
:1058D0000B4E3078FCF71EFC20B900240025204632
:1058E000294670BD3078FCF725FC2046294670BD5E
:1058F0004FF47A740025EBE7A42D002052300020ED
:1059000050300020014B1878FCF714BC50300020B8
:1059100038B5044600200D4601F062FBA8B3002014
:1059200001F074FB88B3FDF7C7FA4FF0FF3E6FF04C
:10593000004C174A821841F1000396457CEB0301A5
:105940003CBF72466346134806F05AFBE8B100209C
:1059500001F046FB58B901464FF0FF3000F02AFD38
:105960006FF002040B4806F037FB204638BD0020DC
:1059700001F04CFB0028EED021462A46002001F021
:105980004FFB04460028EDD1EAE76FF00204ECE794
:1059900040420F00FC2F002008B5FDF78DFA4FF0B4
:1059A000FF3E6FF0004C0F4A821841F1000396450C
:1059B0007CEB03013CBF724663460B4806F020FBBC
:1059C00070B14FF0FF30002100F0F4FC002001F036
:1059D0006DFB0028F5D1BDE80840034806F0FCBA8D
:1059E00008BD00BF40420F00FC2F00202DE9F04110
:1059F00007460E46FDF760FA4FF0FF356FF00044A2
:105A0000324A821841F10003954274EB03013CBF16
:105A10002A4623462E4806F0F3FA08B9BDE8F0817D
:105A2000002001F0DDFA002845D0002E3EDD0025E3
:105A3000DFF8A48012E02246002001F081FB002163
:105A400005444FF0FF3000F0B5FC002001F02EFBC4
:105A5000FDF732FAC8E90001AE4227DD002001F06F
:105A60008DFB741B8442A8BF04467919002CE2D137
:105A700021464FF0FF3000F09DFC204601F016FB60
:105A8000204601F0ADFA88B1204601F077FB0028EE
:105A9000E2D1FDF711FA0F4AD8F800309B18D8F878
:105AA000042042F1000283428A41D5D20848BDE871
:105AB000F04106F091BA0020BDE8F0410021064B0C
:105AC000C3E90001024806F087BA00BF40420F0058
:105AD000FC2F002020A107006021002010B500212C
